:040000008FEF3BF053
:10771E00000EF86E0001B4EF3CF001500302F3CFFF
:10772E0005F0F4CF06F001500402F3500626025085
:10773E000302F350062605C001F006C002F0120047
:10774E00000E016E81988196818800D0819800D0BC
:10775E00956881948186818800D0819800D0BAEF97
:10776E003BF000D0012A83AEBFEF3BF0C1EF3BF000
:10777E00C9EF3BF0310E0164C7EF3BF0C9EF3BF0B0
:10778E00B8EF3BF0819612008180819281948196B0
:10779E00000E956E3F0E836EA7EC3BF081948196A2
:1077AE00000E956E400E836EA7EC3BF081908182A9
:1077BE0081948196000E956E3F0E836EA7EC3BF082
:1077CE0081948196000E956E400E836EA7EC3BF071
:1077DE00120003500410D8B4F7EF3BF0F9EF3BF072
:1077EE001DEF3CF0010E056E01EF3CF0D890033614
:1077FE000436052A04AE06EF3CF008EF3CF0FDEF30
:10780E003BF00350015C04500258D8A011EF3CF03D
:10781E0013EF3CF017EF3CF00350015E0450025A98
:10782E00D89004320332052E08EF3CF001C001F06F
:10783E0002C002F01200000E066E000E056E03501E
:10784E000410D8B42DEF3CF02FEF3CF057EF3CF086
:10785E00010E076E37EF3CF0D89003360436072A38
:10786E0004AE3CEF3CF03EEF3CF033EF3CF0D890F2
:10787E00053606360350015C04500258D8A04AEF74
:10788E003CF04CEF3CF051EF3CF00350015E0450E5
:10789E00025A0580D89004320332072E3EEF3CF098
:1078AE0005C001F006C002F01200000E066E000EBA
:1078BE00056EAAEF3CF005BC67EF3CF06BEF3CF0B9
:1078CE00026A022A6CEF3CF0026A024681500218EC
:1078DE00FD0B0218816E81A277EF3CF07BEF3CF03E
:1078EE00026A022A7CEF3CF0026A81500218FE0BFB
:1078FE000218816E81948196000E956E05C002F07D
:10790E0006C003F0070E046ED89003320232042E26
:10791E008BEF3CF00250B80F836EA7EC3BF08194D6
:10792E008196000E956E05503F0B400F836EA7ECAF
:10793E003BF081848196000E956E000E836EA7EC4F
:10794E003BF0054A062A040E065CD8A0B1EF3CF0C7
:10795E00B3EF3CF062EF3CF01200000E0F01396FF6
:10796E00C00E936E000E3B6F9568818A00D0CBECF3
:10797E003BF05CEC3CF0000E096E020E086E000E41
:10798E000B6E020E0A6EEA0E0C6E7F0E0D6EDBECA7
:10799E003DF0000E096E020E086E000E0B6E030E09
:1079AE000A6EF90E0C6E7F0E0D6EDBEC3DF0000EC6
:1079BE00096E020E086E000E0B6E040E0A6EF20EAB
:1079CE000C6E7F0E0D6EDBEC3DF0000E096E020E9E
:1079DE00086E000E0B6E050E0A6EDE0E0C6E7F0E1E
:1079EE000D6EDBEC3DF0000E1AEC3DF00B0E246E2E
:1079FE00260E236E5E0EE82EFED7232EFCD7242EE7
:107A0E00FAD7010E1AEC3DF00B0E246E260E236EE5
:107A1E005E0EE82EFED7232EFCD7242EFAD7FAEFD1
:107A2E003CF000EF00F0086E000E0A6E000E096EBC
:107A3E00D1EF3DF07F0E0914026E000E0A14036E94
:107A4E00035009E1080E025CD8A030EF3DF032EF92
:107A5E003DF059EF3DF07F0E0914026E000E0A1430
:107A6E00036E035007E1780E025CD8B041EF3DF093
:107A7E0043EF3DF059EF3DF00A5009E1800E095CED
:107A8E00D8A04CEF3DF04EEF3DF059EF3DF0800E9B
:107A9E00095C030E0A58D8A057EF3DF059EF3DF0A0
:107AAE00CFEF3DF009BC5EEF3DF062EF3DF0026AB4
:107ABE00022A63EF3DF0026A024681500218FD0B66
:107ACE000218816E81A26EEF3DF072EF3DF0026AF8
:107ADE00022A73EF3DF0026A81500218FE0B021863
:107AEE00816E81948196000E956E09C002F00AC0D7
:107AFE0003F0070E046ED89003320232042E82EF8A
:107B0E003DF00250B80F836EA7EC3BF08194819646
:107B1E00000E956E09503F0B400F836EA7EC3BF0A5
:107B2E0081848196000E956E0804D8B4A1EF3DF0C5
:107B3E00A5EF3DF0026A022AA6EF3DF0026A09C0E7
:107B4E0003F00AC004F0070E056ED890043203321B
:107B5E00052EACEF3DF0010E03160F0E0914066E46
:107B6E00000E0A14076E07500AE1080E065CD8A034
:107B7E00C3EF3DF0C6EF3DF0010EC7EF3DF0000E36
:107B8E0003180218010DF3500008836EA7EC3BF0AA
:107B9E00094A0A2A040E0A5CD8A0D8EF3DF0DAEFA3
:107BAE003DF021EF3DF01200000E1E6E000E1D6E18
:107BBE000AC00EF00BC00FF0070ED8900E360F361F
:107BCE00E82EE4EF3DF008C001F009C002F0000E0F
:107BDE00046E060E036E94EC3BF00E500124216EE3
:107BEE000F500220226E21C01FF022C020F0ECEFB9
:107BFE003EF021BC05EF3EF009EF3EF00E6A0E2A74
:107C0E000AEF3EF00E6A0E4681500E18FD0B0E184E
:107C1E00816E81A215EF3EF019EF3EF00E6A0E2A2C
:107C2E001AEF3EF00E6A81500E18FE0B0E18816E82
:107C3E0081948196000E956E21C00EF022C00FF039
:107C4E00070E106ED8900F320E32102E29EF3EF026
:107C5E000E50B80F836EA7EC3BF081948196000E08
:107C6E00956E21503F0B400F836EA7EC3BF0818445
:107C7E008196000E956E7F0E21140E6E000E22144C
:107C8E000F6E0F5009E17E0E0E5CD8A051EF3EF044
:107C9E0053EF3EF057EF3EF0000E836ED1EF3EF005
:107CAE007F0E2114016E026A000E046E060E036E24
:107CBE00F0EC3BF001500210D8A468EF3EF06AEFF2
:107CCE003EF06CEF3EF053EF3EF05F0E0E6EFF0E89
:107CDE000F6E1F50215C106E20502258116E7F0EB9
:107CEE001014016E026A000E046E060E036E22EC74
:107CFE003CF01F50215C126E20502258136E070E5E
:107D0E00146ED89013321232142E88EF3EF0150EE8
:107D1E001202F3CF15F0F4CF16F01302F35016261D
:107D2E000CC017F00DC018F015501726165018225B
:107D3E00015017260250182217C0F6FF18C0F7FF81
:107D4E000800F550050D030E196E7E0E1A6EF350D7
:107D5E001926F4501A221F50215C1B6E20502258F7
:107D6E001C6E7F0E1B14016E026A000E046E060E50
:107D7E00036EF0EC3BF00150192602501A220E5001
:107D8E0019260F501A2219C0F6FF1AC0F7FF080065
:107D9E00F5CF83FFA7EC3BF0214A222A1F50215C2E
:107DAE00016E20502258026E000E046E060E036EF7
:107DBE00F0EC3BF001500210D8A4E8EF3EF0EAEFF1
:107DCE003EF0ECEF3EF01D4A1E2A1D500C240E6EA6
:107DDE001E500D200F6E0EC0F6FF0FC0F7FF0800ED
:107DEE00F5500009D8A4FEEF3EF000EF3FF000EF93
:107DFE003EF0120000000000000000005F000000D6
:107E0E0003000300143E143E14242A7F2A12433327
:107E1E0008666136495522500005030000001C22F9
:107E2E0041000041221C0014083E081408083E08B8
:107E3E0008005030000008080808080060600000C4
:107E4E0020100804023E5149453E0004027F0042C4
:107E5E006151494622414949361814127F1027456F
:107E6E004545393E494949320101710907364949AB
:107E7E004936264949493E0036360000005636003E
:107E8E000008142241001414141414004122140882
:107E9E0002015109063E4159555E7E0909097E7F50
:107EAE00494949363E414141227F4141413E7F4948
:107EBE004949417F090909013E4141493A7F080874
:107ECE00087F00417F4100304040403F7F08142230
:107EDE00417F404040407F020C027F7F0204087FBA
:107EEE003E4141413E7F090909061E2121215E7F47
:107EFE0009090976264949493201017F01013F40AE
:107F0E0040403F1F2040201F7F2010207F41221C19
:107F1E00224107087008076151494543007F41001F
:107F2E000002040810200000417F00040201020438
:107F3E004040404040000102040020545454787FD9
:107F4E00444444383844444444384444447F3854C8
:107F5E0054541804047E0505085454543C7F0804F8
:107F6E00047800447D40002040443D007F102844AA
:107F7E000000417F40007C047804787C080404787B
:107F8E0038444444387C14141408081414147C0027
:107F9E007C080404485454542004043F44443C4098
:107FAE0040207C1C2040201C3C4030403C4428108B
:107FBE0028440C5050503C4464544C440008364104
:107FCE004100007F00004141360800020102040218
:107FDE004E6F3A3132333435363738004B4F4D34DD
:107FEE0036373000414B42415449004F4E555200F6
:017FFE000082
:020000040020DA
:08000000FFFFFFFFFFFFFFFF00
:020000040030CA
:0E000000FF221F3CFFBF85FF0FC00FE00F4027
:00000001FF
